:020000040800F2
:10000000F03200201D1A0008B9050008BB050008E1
:10001000BF050008C3050008C70500080000000070
:10002000000000000000000000000000CB050008F8
:10003000CD05000800000000CF050008D10500082C
:10004000371A0008371A0008371A0008371A00084C
:10005000371A0008371A0008371A0008371A00083C
:10006000371A0008371A0008371A0008371A00082C
:10007000371A0008371A0008371A0008371A00081C
:10008000371A0008371A0008371A0008371A00080C
:10009000854F0008371A0008371A0008371A000879
:1000A000371A0008371A0008371A0008371A0008EC
:1000B000371A000843080008371A0008371A0008E2
:1000C000371A0008371A0008371A0008371A0008CC
:1000D000371A0008AF190008371A0008371A000845
:1000E000371A0008371A0008794F0008371A000835
:1000F000371A0008371A0008371A0008371A00089C
:10010000371A0008371A0008371A0008371A00088B
:10011000371A0008371A0008371A0008371A00087B
:10012000371A0008371A0008371A0008371A00086B
:1001300000F002F800F0B0F80AA090E8000C824449
:100140008344AAF10107DA4501D100F0A5F8AFF226
:10015000090EBAE80F0013F0010F18BFFB1A43F0A5
:1001600001031847A87E0000C87E00000A444FF033
:10017000000C10F8013B13F0070408BF10F8014B06
:100180001D1108BF10F8015B641E05D010F8016B4B
:10019000641E01F8016BF9D113F0080F1EBF10F8AF
:1001A000014BAD1C0C1B09D16D1E58BF01F801CBD2
:1001B000FAD505E014F8016B01F8016B6D1EF9D555
:1001C0009142D6D37047000000230024002500266A
:1001D000103A28BF78C1FBD8520728BF30C148BFAA
:1001E0000B6070476E2905F00B86702905F05F875C
:1001F000662907F0B585652907F0B285672907F0FC
:10020000AF85612907F0AE8503681B0A28BF41F05E
:100210008001692905F0F483642905F0F1837529CB
:1002200005F0EE836F2905F0EC86782905F02B8721
:10023000E92905F08786E42905F08486F52905F08B
:100240008186EF2905F0E986F82905F02A870368F9
:10025000DB0928BF41F08001632906F03783732949
:1002600006F03C83E32906F04783F32906F04C832C
:10027000002070471FB506F09DFB04000020002100
:1002800007F096F8401C60600020002107F07AF823
:10029000E0601FBD10B510BD06F05EFB1146FFF714
:1002A000E9FF00F009F806F03BFC03B4FFF7F2FFAA
:1002B00003BC01F0ABFA000086B04FF0000A01F079
:1002C0001DFA4FF4A06001F0C9FB022001F086FA8C
:1002D000012001F083FA4FF4E13001F0A5FA00F0BB
:1002E00069FA41F61F41312000F07EFA00F0BEFAB3
:1002F00000F0BDFF4FF4FA7001F03DFA002004F069
:100300009AFEC82001F037FA012004F094FE04F0B0
:100310003DFE04F05BFE04F001F824E19248006821
:10032000824503D09048006800F0FF0A8F4800889B
:1003300000F4004038B100BF00208C490880C8217B
:100340008B4805F07CFCBAF1050F7DD18948006827
:10035000642823D90020874908608748006808B9C5
:10036000012000E000208449086084480078401C97
:1003700082490870084600780A280FDB00200870C0
:1003800000F0CAFA7E4908607E497D48006807F09F
:100390001BFC039007F0CCFB7B49086000247B4FDB
:1003A000A046642420E07A4850F82410A4F16400A8
:1003B000774A42F82010774850F82410A4F16400DE
:1003C000744A42F82010724850F82400B84202D211
:1003D0006F4850F824706E4850F82400404502D908
:1003E0006B4850F82480641CB4F5FA7FDBDB4FF4D3
:1003F000C87497E0601E664951F8206000BF6648E7
:1004000000680128FBD004A9072000F0E6FE9DF853
:1004100010008007800B9DF8111040EA01209DF824
:10042000121008435A4941F824009DF81300800730
:10043000800B9DF8141040EA01209DF81510084328
:10044000544941F8240000E07EE0514850F824006F
:10045000B0421DD94E4951F82410881B07F0A0FB6B
:100460008346A8EB070007F09BFB01460390584624
:1004700007F080FA83464949584607F0A5FB8346B2
:10048000584607F039FB2D1A002D1EDA00251CE016
:100490003F4951F82410701A07F082FB8346A8EBFD
:1004A000070007F07DFB01460390584607F062FA0B
:1004B00083463A49584607F087FB8346584607F07B
:1004C0001BFB0544FF2D00DDFF252F480088000A97
:1004D000334988702C480078C870280A08714D711B
:1004E00030480088000A88712E480078C8712E486C
:1004F000007808722D480088000A48722B4800785E
:1005000088722B480078C8724FF0000906E0244931
:1005100011F8090004F043FE09F10109B9F1100FC7
:10052000F5DB641CB4F5FA7FFFF664AF1E481D4985
:100530001F4A1E4BCDE900210290154A1D48016853
:10054000144800F02BFB0EE00A4800680A280AD97C
:100550000020084908600848006808B9012000E048
:10056000002005490860D9E68001002088000020AD
:10057000682B002040000020BC01214244000020E4
:100580001000002000007A4414000020FFFF030048
:100590005C0900208C0100201C81214200007F4367
:1005A0000000002024000020280000201C00002063
:1005B0002000002018000020704700BFFEE700BFA9
:1005C000FEE700BFFEE700BFFEE7704770477047D9
:1005D000704700000CB50020019000906C48006846
:1005E00040F480306A49086000BF6948006800F440
:1005F000003000900198401C0190009818B90198B3
:10060000B0F5A06FF1D16248006800F4003010B17D
:100610000120009001E0002000900098012843D1C3
:100620005C48006840F010005A49086008460068BD
:1006300020F0030008600846006840F002000860EF
:100640005348406852494860084640684860084638
:10065000406840F4806048600846406820F47C10A0
:1006600048600846406840F4E81048600846006862
:1006700040F08070086000BF4548006800F00070DE
:100680000028F9D04248406820F003004049486003
:100690000846406840F00200486000BF3C4840689F
:1006A00000F00C000828F9D10CBD10B5FFF792FF3F
:1006B00010BD10B53648006840F0010034490860AC
:1006C0000846406834490840314948600846006897
:1006D000324908402E4908600846006820F480200E
:1006E00008600846406820F4FE0048604FF41F0090
:1006F0008860FFF7DAFF4FF000602949086010BDFD
:1007000010B5002100200022214B5B6803F00C0192
:1007100021B1042906D0082928D107E0214B224C19
:10072000236027E01F4B204C236023E0184B5B68BD
:1007300003F47010164B5B6803F48032022303EB62
:10074000904022B9194B4343174C23600DE0104BE6
:100750005B6803F4003323B1144B4343124C236012
:1007600003E0104B4343104C236003E00D4B0E4C51
:10077000236000BF00BF064B5B68C3F303130C4C40
:10078000E15C094B1B68CB40074C236010BD0000A7
:1007900000100240002002400000FFF8FFFFF6FEBC
:1007A00008ED00E000127A002C00002000093D0056
:1007B0003000002008B501210C2001F0D9FC4FF4D5
:1007C0000040ADF8000010208DF8030003208DF8E4
:1007D00002006946034801F00FFA2021014801F0A8
:1007E000B8FA08BD000801407FB505460C46012156
:1007F000022001F0CAFCADF80850ADF8044000201A
:10080000ADF80A00ADF8060001A9164802F07AF822
:1008100001221146134802F0ECFB1D208DF8000068
:1008200000208DF8010003208DF8020001208DF8D2
:100830000300684601F017F901210A4802F0BEFBE7
:100840007FBD10B50121074802F081FE40B10121B2
:10085000044802F08DFE04480068401C024908600C
:1008600010BD0000000400404000002008B5012138
:10087000082001F07DFC4FF48070ADF800004820A6
:100880008DF8030003208DF802006946564801F0F8
:10089000B3F908BD10B54FF48071534801F05BFA0D
:1008A0004FF4FA7000F043FF4FF480714E4801F0AE
:1008B00050FA10BD10B54FF480714B4801F04BFA5F
:1008C0000A2000F034FF4FF48071474801F041FAEC
:1008D000142000F02CFF4FF48071434801F01FFA00
:1008E00008B1012400E000244FF480713E4801F07B
:1008F00030FA1E2000F01BFF204610BD70B500240A
:10090000082505E06006040EFFF7D4FF04436D1EC2
:10091000002DF7DC204670BD2DE9F04F87B0002098
:100920000690FFF7B7FF962000F025FFFFF7C2FF04
:1009300005460A2000F0FBFEFFF7BCFF06460A2032
:1009400000F0F5FE05F0010506F00106002D49D185
:10095000002E47D1FFF7AEFF81460A2000F0E7FEE8
:10096000FFF7CCFF82460A2000F0E1FEFFF7C6FF4A
:1009700083460A2000F0DBFE0BEB0A24B9F1010FDD
:1009800016D1E443A4B2641C204606F0B1FE07462B
:100990000022164B06F0C4FE0022154BCDE90201E1
:1009A00006F04EFDCDE9040106F018FD069015E0B5
:1009B000204607F0DDF8019006F0B0FF0746002260
:1009C0000C4B06F0ADFE0022094BCDE9020106F00A
:1009D00037FDCDE9040106F001FD0690069807B049
:1009E000BDE8F08F0020FAE7000C014000400FC086
:1009F00000408F4000400F4030B50C46012213E00C
:100A000050F82230114605E04D1E50F8255040F8B0
:100A10002150491E002904DD4D1E50F825509D42ED
:100A2000F2DC40F82130521CA242E9DB30BDF0B5C7
:100A300003461546012217E051F82240104605E012
:100A4000461E51F8266041F82060401E002808DD4F
:100A500053F82470461E51F8266053F82660B742BA
:100A6000EEDC41F82040521CAA42E5DBF0BD2DE946
:100A7000F04F05460C469246984629465046226855
:100A8000FFF7D5FF4FF0FF3621E0D4F800B0701C1F
:100A90002060771C18E055F82710701C10B94FF033
:100AA000FF3001E055F82600A1EB0009C14503DC49
:100AB000C8F10000814506DA55F827102268501C5D
:100AC000206045F822107F1C5F45E4DB761C20681F
:100AD000B042DADC28462168FFF78EFFBDE8F08FD0
:100AE000F0B505461C46059E012000270F6030E04A
:100AF00052F82070B7422BDD52F820C0471E52F842
:100B00002770BC4524DD012300E05B1CC718A74209
:100B100007DA52F8207000EB030C52F82CC067453E
:100B2000F3D052F8207000EB030C52F82CC067454C
:100B30000CDD0F680F2F09DAD1F800C00CF10107A6
:100B40000F6045F82C005F1C384402E0184400E0B8
:100B5000401C671E8742CBDCF0BD2DE9F8470546F7
:100B60000C4616461F46DDE90A9ADDF824803B460E
:100B7000324621462846CDF80080FFF7B1FF4B46AC
:100B8000324621462846FFF772FF2068504501DAB9
:100B9000206800E050462060BDE8F8872DE9FF4F4F
:100BA000C6B08846994600204590002406E0469845
:100BB00050F82410459808444590641C4445F6DBE1
:100BC0004598B0FBF8F04590002408E0469850F8AE
:100BD00024104598081AFE4941F82400641C444535
:100BE000F4DB002417E0FA4850F824100246601C99
:100BF00052F820000144A01C52F820000144E01CDF
:100C000052F820000F183846F91707EB9171891038
:100C100042F82410641CB4F5F87FE4DB00240AE0F9
:100C2000EB49601C51F8200051F82410401AE949A2
:100C300041F82400641CB4F5F77FF1DD00240EE0D8
:100C4000E44951F824200B46611C53F82110501838
:100C500000EBD07149101A4642F82410641CB4F518
:100C6000F77FEDDB00251BE0002043902C460BE0D6
:100C7000D84850F82410601BD74A32F81020439807
:100C800001FB12004390641C681D8442F0DB40F2BB
:100C90007A41439890FBF1F0CE4941F825006D1C54
:100CA000B5F5F47FE0DD00204190002410E0C94854
:100CB00050F82400002803DDC64850F8240003E063
:100CC000C44850F824004042419908444190641CB3
:100CD000B4F5F77FEBDD40F2EF11419890FBF1F0B6
:100CE000419005210822419840F2EF13CDE90121FE
:100CF0000090B84A40A912A8FFF72FFF00201190DA
:100D00004098022821DB01240BE012A850F824109F
:100D1000601E12AA52F82000091A11980844119076
:100D2000641C40988442F0DB4098401E119991FB6E
:100D3000F0F0119041F27071119891FBF0F154981C
:100D4000016001215598017005E0A44954980160A3
:100D5000002155980170002407E012A850F82400E3
:100D6000801C30A941F82400641C40988442F4DBC4
:100D700000240CE0469850F82400954941F82400DE
:100D8000489850F82400964941F82400641C4445D2
:100D9000F0DB0020429000242DE00120449030A898
:100DA00050F824A04FF080703F900AF10500B0F594
:100DB000F77F1FDC0A3800281CDD054611E0844857
:100DC00050F825103F9881420ADA449808B1002073
:100DD00044907F4850F825003F9021A840F82450C7
:100DE0006D1C0AF105008542E9DB449810B9429870
:100DF000401C4290641C40988442CEDB42980228FA
:100E000008DA7648C9F800000021539801704AB00A
:100E1000BDE8F08F00242EE06D4951F824200B46E8
:100E2000611C53F821100A44A11C53F821100A44F4
:100E3000E11C53F821105018C11700EB9171891073
:100E40001A4642F82410664951F824200B46611CCA
:100E500053F821100A44A11C53F821100A44E11C44
:100E600053F821105018C11700EB917189101A46E0
:100E700042F82410641CB4F5F87FCDDB0020049008
:100E80000026002404E0002005A941F82400641C89
:100E9000052CF8DB00240DE021A850F82400B0F563
:100EA000FA7F06DD4D48C9F8000000215398017013
:100EB000ADE7641C42988442EEDB0024AFE04FF0C3
:100EC0007F400D900C9021A9601C51F8200051F832
:100ED0002410401A0A2879DD21A850F8245016E081
:100EE0003B4850F825100C98814204DD384850F8F2
:100EF00025000C900A953A4850F825100D9881422B
:100F000004DD374850F825000D900B956D1C21A984
:100F1000601C51F82000A842E2DC601C51F820005F
:100F20002F4951F8200021A951F824102C4A52F8D9
:100F30002110401A21A951F824200B99891A4843FD
:100F4000109021A9601C51F8200051F82410411A7A
:100F5000109890FBF1F021A951F82410204A52F882
:100F600021100844109011460B9851F82010109849
:100F7000081A109021A9601C51F82000144951F85A
:100F8000200021A951F82410114A52F82110401ACA
:100F900021A951F824200A99891A48430F9021A9C0
:100FA000601C51F8200051F82410411A0F9890FB52
:100FB000F1F021A951F82410054A52F821100844F3
:100FC0000F9011460B9851F820100BE026E000001E
:100FD000EC1800202C110020687D000819FCFFFF90
:100FE000BC2000200F98081A0F900C9910984843C5
:100FF000C01103900D990F984843C711002F0DDDC4
:10100000052E0BDA039848B1039800EB80008000AE
:1010100090FBF7F005A941F82600761C641C429865
:10102000401EA0423FF74BAF314605A8FFF7E4FC56
:10103000304606EBD0714FEA610BBBF1010F0CDDBE
:10104000ABF1010105AA52F8211052F82B208818A3
:1010500000EBD0714910049103E005A850F82B0073
:101060000490049802280DDD0498B8280ADA09498A
:101070000498085C0E900E98C9F80000012153985E
:10108000017005E00448C9F8000000215398017080
:1010900000BFBCE6A67D000819FCFFFF70B5054641
:1010A0000C4600F090F9AE2000F03CFA00F0CCF9CC
:1010B00000B111E0284600F035FA00F0C5F900B1A2
:1010C0000AE0204600F02EFA00F0BEF900B103E07D
:1010D00000F09BF9012070BD00F097F90020FAE7BD
:1010E00070B5044600F06FF9AE2000F01BFA00F076
:1010F000ABF900B119E0204600F014FA00F0A4F9B1
:1011000000B112E000F05FF9AF2000F00BFA00F040
:101110009BF900B109E0002000F031FA054600F02B
:10112000E0F900F072F9284670BD00F06EF9002079
:10113000FAE72DE9F04782460C46174600253E4661
:1011400000F041F9AE2000F0EDF900F07DF900B1BA
:101150003FE0504600F0E6F900F076F900B138E0E3
:1011600000F031F9AF2000F0DDF900F06DF900B1C9
:101170002FE029E0002000F002FA804600F090F90C
:10118000002000F0FCF9814600F08AF949EA0820C5
:1011900024F82500002000F0F2F9804600F080F9E4
:1011A000002000F0ECF98146012E02D100F099F9FF
:1011B00001E000F075F949EA082004EB8501488058
:1011C000701EC6B2681CC5B2002ED3D100F01DF946
:1011D00000BF00F01AF9BDE8F08770B505460C466F
:1011E0000020FFF77DFF0120FFF77AFF00F0EBF80A
:1011F000AE2000F097F900F027F900B12AE0284668
:1012000000F090F900F020F900B123E000F0DBF8E5
:10121000AF2000F087F900F017F900B11AE00120C3
:1012200000F0ADF92070012000F0A9F960700120F4
:1012300000F0A5F9A070012000F0A1F9E0700120F4
:1012400000F09DF92071002000F099F9607100F024
:10125000DCF800BF00F0D9F870BD10B540210920BE
:10126000FFF71CFF40210920FFF718FF10BD08B54C
:101270000121082000F07CFF4FF48040ADF8000011
:1012800048208DF803006946414800F0B5FC00F0A5
:1012900081F8FFF7E2FFC0210220FFF7FFFE0021E7
:1012A0000320FFF7FBFE00210420FFF7F7FE0021DB
:1012B0000520FFF7F3FE00210620FFF7EFFE0F21C8
:1012C0000820FFF7EBFE03210920FFF7E7FE2721A7
:1012D0000A20FFF7E3FE24210C20FFF7DFFE242184
:1012E0000D20FFF7DBFE7F211020FFF7D7FE08BDA2
:1012F00070B504460D462A462146AE2000F0DDF9C1
:1013000070BD70B504460D462A462146AE2000F059
:10131000B5F970BDFEB506460C4600203060206071
:1013200002A9FFF7EEFF02A90120FFF7EAFF06235B
:101330006A460721AE2000F072F99DF800502D0496
:101340003068284430609DF801502D0230682844F0
:1013500030609DF802503068284430609DF803509A
:101360002D042068284420609DF804502D02206838
:10137000284420609DF8055020682844206030688B
:10138000C0F3110030602068C0F311002060FEBD82
:10139000000C014008B50121082000F0E9FE6020A2
:1013A000ADF8000014208DF8030003208DF8020032
:1013B0006946CF4800F020FC0120CE490860CE49A4
:1013C000C1F8940108BD10B5C948006820F4700048
:1013D000C74908600846006840F4401008600120D2
:1013E000C449091F0860C449C1F89801042000F0ED
:1013F0009EF90020BF49091F0860042000F097F9FA
:101400000020BD49C1F8980110BD10B5B84800686A
:1014100020F47000B64908600846006840F44010A7
:1014200008600020B3490860B349C1F89401042062
:1014300000F07DF90120AF490860AF49C1F894017F
:10144000042000F074F910BD10B50024A84800680D
:1014500020F47000A64908600846006840F40000C7
:1014600008600120A349091F086000F060F901200D
:10147000A149C1F8980100F05AF907E0601CC4B214
:10148000FA2C03DDFFF7C1FF012010BD2021984891
:1014900000F045FC0028F1D19649086000BFF4E750
:1014A00010B50020934908609148006820F470004E
:1014B0008F4908600846006840F44010086000202A
:1014C0008D49C1F89401022000F031F901208949C9
:1014D0000860022000F02BF900208749C1F898012C
:1014E00010BD10B50020834908608148006820F4D1
:1014F00070007F4908600846006840F440100860AA
:1015000001207D49C1F89401022000F010F901206A
:1015100078490860022000F00AF900207649C1F8F5
:10152000980110BD70B504467148006820F4700041
:101530006F4908600846006840F4401008600020C9
:101540006C490860002517E0E0096A49091F086036
:101550006006040E022000F0EAF801206649C1F896
:101560009801022000F0E3F80020624908600220A0
:1015700000F0DDF8681CC5B2082DE5DB70BD70B564
:10158000054600245A48006820F470005849086055
:101590000846006840F400000860002617E00020BC
:1015A00054490860022000F0C2F801205249C1F8F5
:1015B00098016006040E20214D4800F0B0FB08B1F0
:1015C000601CC4B2012000F0B2F8701CC6B2082E34
:1015D000E5DB15B9FFF785FF01E0FFF761FF204666
:1015E00070BD2DE9F04107460D461646FFF7EBFEAC
:1015F0003846FFF797FFFFF727FF002406E0285D36
:10160000FFF790FFFFF720FF601CC4B2B442F6DB87
:10161000FFF7FBFE0A2000F0AEF8BDE8F0812DE9EF
:10162000F0410746884614461D46FFF7CCFE384673
:10163000FFF778FFFFF708FF4046FFF773FFFFF75C
:1016400003FF47F00100FFF76DFFFFF7FDFE0026E7
:1016500005E00120FFF793FFA055701CC6B2681E7D
:10166000B042F6DC0020FFF78AFF691E6054FFF7E6
:10167000CCFE0A2000F07FF8BDE8F08170B504468A
:101680000D461646FFF79FFE2046FFF74BFFFFF77C
:10169000DBFE2846FFF746FFFFF7D6FEFFF793FE77
:1016A00044F00100FFF73EFFFFF7CEFE0020FFF7FA
:1016B00066FF3070FFF7A9FE70BD70B506460C4698
:1016C0001546FFF780FE3046FFF72CFFFFF7BCFE04
:1016D0002046FFF727FFFFF7B7FE2846FFF722FF58
:1016E000FFF7B2FEFFF791FE0A2000F044F870BD4C
:1016F000000C0140988121420080214210B56FF01A
:10170000040000F0FAF92E4800682E49B0FBF1F011
:101710002D4908700846007800EB4001C1EBC0106D
:101720004FF6FF7101EAC0002849088010BD01464C
:10173000254A12784A434FF0E0235A6100229A6109
:101740001A46126942F001021A6100BF4FF0E0220E
:10175000106900F001021AB100F48032002AF5D0BD
:101760004FF0E022126922F001024FF0E0231A61EB
:1017700000229A6170470146144A12884A434FF08A
:10178000E0235A6100229A611A46126942F001026E
:101790001A6100BF4FF0E022106900F001021AB197
:1017A00000F48032002AF5D04FF0E022126922F0D6
:1017B00001024FF0E0231A6100229A617047000095
:1017C0002C00002000127A00460000204800002073
:1017D00030BF704772B6704762B67047014649061F
:1017E000084A926942F00102064B9A61064A526821
:1017F00022F0E062044B5A601A4652680A435A606B
:1018000070470000001002400000014000BF704718
:1018100000BF7B4A128802F04002002AF9D0C2B20F
:10182000774B1B1D1A80704710B586B00446012106
:1018300044F2040000F09CFC714800F0FDFC4FF401
:101840000070ADF8140003208DF8160018208DF8F4
:10185000170005A96B4800F0CFF94FF48060ADF890
:10186000140004208DF8170005A9664800F0C4F99B
:1018700025208DF8000001208DF801008DF8020070
:101880008DF80300684600F0EEF801940020ADF8F2
:101890000800ADF80A00ADF80C00ADF810000C20FF
:1018A000ADF80E0001A9564800F009FD002240F2F3
:1018B0002661534800F09BFD002240F2255150481C
:1018C00000F095FD012240F224414D4800F08FFDCB
:1018D00001214B4800F07FFD06B010BD30B58BB044
:1018E00005460C460121084600F035FC464801F04B
:1018F00043FE464804804248001D00900195102098
:10190000029003940020049080200590002006900F
:10191000079008904FF48050099000200A90694683
:10192000394801F0CBFE01228021354800F084FDCA
:101930000021354801F0EDFE2146334801F0FEFE5E
:101940000121314801F0E5FE0BB030BD00B58BB090
:101950000121084600F0FFFB2B48143001F00CFE7B
:101960002748001D00902A48019000200290C820BE
:10197000039000200490802005900020069007909E
:1019800008904FF44050099000200A9069461E4884
:10199000143001F093FE01211B48143001F0B9FE10
:1019A00001224021164800F047FD0BB000BD10B5E4
:1019B000002440F22441124800F0FEFDE8B1104836
:1019C0000488001D048800210F48143001F0A1FE96
:1019D0000D48143001F0B4FEC0F1C8040D490C806C
:1019E00001200D490870C8210748143001F0A6FEF7
:1019F00001210548143001F08CFE00BF10BD00002D
:101A0000003801400008014044000240500000201E
:101A10008C280020520000205400002009488047F4
:101A200009480047FEE7FEE7FEE7FEE7FEE7FEE7C0
:101A3000FEE7FEE7FEE7FEE704480549054A064BD8
:101A400070470000B306000831010008F02C0020A8
:101A5000F0320020F02E0020F02E0020314901430A
:101A6000314A1160704770B5002100230F22C478FD
:101A700004B32D4C246804F4E064C4F5E064210A46
:101A8000C1F10403CA40447804FA03F18478144095
:101A900021430901254C0678A155047804F01F055F
:101AA0000124AC4005786D11AD0005F1E025C5F8C5
:101AB000004109E0047804F01F050124AC401C4DEE
:101AC0000678761145F8264070BD1A4A0A4002434E
:101AD000154B1B1F1A60704739B1134A121D12684B
:101AE0000243114B1B1D1A6006E00F4A121D1268BB
:101AF00082430D4B1B1D1A607047042808D14FF01C
:101B0000E021096941F004014FF0E022116107E092
:101B10004FF0E021096921F004014FF0E02211614A
:101B2000704700000000FA050CED00E000E400E062
:101B300080E100E080FFFF1F10B50446CC488442DE
:101B400008D10121042000F02DFB0021042000F029
:101B500029FB46E0C748844208D10121082000F053
:101B600021FB0021082000F01DFB3AE0C24884421E
:101B700008D10121102000F015FB0021102000F0F9
:101B800011FB2EE0BD48844208D10121202000F045
:101B900009FB0021202000F005FB22E0B848844228
:101BA00008D10121402000F0FDFA0021402000F082
:101BB000F9FA16E0B348844208D10121802000F0F0
:101BC000F1FA0021802000F0EDFA0AE0AE488442EC
:101BD00007D10121801500F0E5FA0021A01500F0E1
:101BE000E1FA10BD10B50121084600F0DBFA002132
:101BF000012000F0D7FA10BD2DE9F0410246002582
:101C00000026002000230024002791F803C00CF0D8
:101C10000F0591F803C00CF0100CBCF1000F03D0BD
:101C200091F802C04CEA050591F800C0BCF1000F24
:101C300031D0146800202BE04FF0010C0CFA00F3B7
:101C4000B1F800C00CEA03069E4220D183004FF099
:101C50000F0C0CFA03F7BC4305FA03FC4CEA04042E
:101C600091F803C0BCF1280F06D14FF0010C0CFA1B
:101C700000FCC2F814C00AE091F803C0BCF1480FA0
:101C800005D14FF0010C0CFA00FCC2F810C0401C4A
:101C90000828D1D31460B1F800C0BCF1FF0F34DDC7
:101CA000546800202EE000F1080C4FF0010808FAFB
:101CB0000CF3B1F800C00CEA03069E4221D1830068
:101CC0004FF00F0C0CFA03F7BC4305FA03FC4CEA87
:101CD000040491F803C0BCF1280F05D100F1080CF1
:101CE00008FA0CF8C2F8148091F803C0BCF1480F50
:101CF00007D100F1080C4FF0010808FA0CF8C2F8FF
:101D00001080401C0828CED35460BDE8F0814FF607
:101D1000FF710180022181700421C1707047024669
:101D2000002093680B400BB1012000E000207047B9
:101D30000146886880B2704702460020D3680B4095
:101D40000BB1012000E0002070470146C86880B256
:101D5000704701617047416170470AB1016100E05D
:101D600041617047C16070474FF480320A4382611D
:101D70008161826182698269704702460020434B1B
:101D800018684FF68073184040EA021008433F4B32
:101D9000186070473E49C8617047F0B50A46002395
:101DA00000240021002500F00046B6F1004F02D1CA
:101DB000364EF16901E0354E7168C0F3034583B2D8
:101DC00000F44016B6F5401F08D121F070612F4E87
:101DD000766826F070662D4F7E6012E000F4801663
:101DE000B6F5801F06D1032606FA05F4A14341F09B
:101DF000706106E0460D360103FA06F6B14341F084
:101E0000706122B1460D360103FA06F6314300F047
:101E10000046B6F1004F02D11C4EF16101E01B4EAD
:101E20007160F0BD30B500228B071C0F0F2303FA41
:101E300004F2164B08338C1053F824309343134CA0
:101E400008348D1044F8253023468C1053F8243084
:101E50008C07240F00FA04F423430C4C08348D1033
:101E600044F8253030BD0A49DC3108607047000075
:101E700000080140000C0140001001400014014026
:101E800000180140001C01400020014000000140FA
:101E900000002042DF48006840F00100DD49086092
:101EA00008464068DC490840DA494860084600684E
:101EB000DA490840D74908600846006820F48020C5
:101EC00008600846406820F4FE0048604FF41F0098
:101ED00088607047CF49096821F48031CD4A11608C
:101EE0001146096821F480211160B0F5803F03D0CC
:101EF000B0F5802F0ED106E0C649096841F4803163
:101F0000C44A116007E0C349096841F4A021C14AED
:101F1000116000E000BF00BF704710B5014600220D
:101F2000002300204A11012A02D1BA4C236806E09E
:101F3000022A02D1B74C236A01E0B64C636A01F071
:101F40001F02012494401C400CB1012000E000203D
:101F500010BD38B5002000900024002500BF3120BE
:101F6000FFF7DBFF05460098401C00900098B0F595
:101F7000A06F01D0002DF2D03120FFF7CEFF08B1C5
:101F8000012400E00024204638BD01460020A14A7B
:101F9000106820F0F80040EAC10010607047A049C6
:101FA00008607047024600209A4B586820F47C1065
:101FB00042EA01031843974B5860704798490866F6
:101FC000704701460020934A506820F00300084300
:101FD000506070478F48406800F00C007047014621
:101FE00000208C4A506820F0F00008435060704791
:101FF00001460020874A506820F4E06008435060A2
:10200000704701460020834A506820F4605040EA3F
:10201000C1005060704729B17E4A527A02437D4B1D
:102020005A7204E07B4A527A82437A4B5A72704762
:102030007B49D8310860704701460020754A5068D6
:1020400020F440400843506070470021714A20321C
:102050001170704A82F82010012802D004280AD199
:1020600004E001216B4A2032117005E00521694A24
:102070002032117000E000BF00BF7047694908605E
:1020800070476449096A0143624A116270476549B1
:1020900044390860704730B5002100220024002335
:1020A0005C4D6D6805F00C0121B1042905D00829AB
:1020B00023D105E05C4D056022E05B4D05601FE02B
:1020C000544D6D6805F47012524D6D6805F48034FE
:1020D000022505EB92421CB9544D554305600BE0B7
:1020E0004C4D6D6805F400351DB1504D55430560EC
:1020F00002E04D4D5543056002E04B4D056000BFC9
:1021000000BF444D6D6805F0F0010909484D6B5C56
:102110000568DD4045603F4D6D6805F4E061090AE2
:10212000434D6B5C4568DD4085603A4D6D6805F454
:102130006051C90A3E4D6B5C4568DD40C560354D58
:102140006D6805F44041890B3A4D6B5CC568B5FB81
:10215000F3F5056130BD29B12E4A526902432D4B7A
:102160005A6104E02B4A526982432A4B5A617047F4
:1021700029B1284A92690243264B9A6104E0254A14
:1021800092698243234B9A61704729B1214AD269EF
:102190000243204BDA6104E01E4AD26982431D4BA0
:1021A000DA61704729B11B4AD2680243194BDA60E1
:1021B00004E0184AD2688243164BDA60704729B1AE
:1021C000144A12690243134B1A6104E0114A12695E
:1021D0008243104B1A6170471249403908607047BA
:1021E0000F49C86470470B49C87170470948406A75
:1021F00040F0807007494862704701460020054A58
:1022000092680A400AB1012000E0002070470149AD
:1022100088727047001002400000FFF8FFFFF6FED2
:10222000000042428004424200127A0000093D0050
:10223000550000206500002010B50446FB4884428C
:1022400009D101218803FFF7ADFF00214FF4804041
:10225000FFF7A8FF32E0F648844209D10121480483
:10226000FFF7ADFF00214FF40030FFF7A8FF25E096
:10227000F048844209D101218804FFF7A0FF002122
:102280004FF48020FFF79BFF18E0EB48844209D110
:102290000121C804FFF793FF00214FF40020FFF74E
:1022A0008EFF0BE0E548844208D101210805FFF7C5
:1022B00086FF00214FF48010FFF781FF10BD2DE94C
:1022C000F04786B005460E460024A24600BFA14650
:1022D0000027B08900B100BF2F462C8A4CF6FF7052
:1022E0000440F08804432C82AC894EF6F31004407D
:1022F000B08831890843718908430443AC81AC8AB2
:102300004FF6FF400440B0890443AC8201A8FFF7B8
:10231000C2FEC648874202D1DDF810A001E0DDF818
:102320000CA0A88900F4004040B10AEBCA0000EB01
:102330000A1031684900B0FBF1F807E00AEBCA0067
:1023400000EB0A1031688900B0FBF1F86420B8FB9B
:10235000F0F004012009642101FB1089A88900F430
:10236000004040B1322000EBC900B0FBF1F000F0BA
:102370000700044308E0322000EB09106421B0FBA1
:10238000F1F000F00F0004432C8106B0BDE8F087A7
:102390004FF41651016000218180C18001810C2120
:1023A000418100218181704710B502460020108ACA
:1023B0004FF2FF0318400B884C8823438C8823433B
:1023C000CC8823431843108210BD00210180418036
:1023D0008180C180704721B1828942F4005282819C
:1023E00004E082894DF6FF731A4082817047F0B590
:1023F0000346002400260025002040F66A17B94253
:1024000000D100BF1846C1F3421401F01F06012796
:1024100007FA06F5012C01D10C3004E0022C01D1A1
:10242000103000E014301AB107682F43076002E053
:102430000768AF430760F0BD1AB1838A0B438382FC
:1024400002E0838A8B4383827047028A4FF6F073DF
:102450001A400282028A0A430282704782894FF23E
:10246000FF731A40828182890A438281704721B1B9
:10247000828942F00202828104E082894FF6FD7374
:102480001A4082817047028A4FF6DF731A40028237
:10249000028A0A430282704721B1028A42F48042D2
:1024A000028204E0028A4BF6FF731A4002827047F0
:1024B000C1F308028280704701468888C0F3080093
:1024C0007047818941F0010181817047028BD2B24E
:1024D0000283028B42EA012202837047028B02F4DC
:1024E0007F420283028B0A430283704721B1828AB2
:1024F00042F02002828204E0828A4FF6DF731A40A3
:102500008282704721B1828A42F01002828204E006
:10251000828A4FF6EF731A408282704721B1828A15
:1025200042F00802828204E0828A4FF6F7731A4072
:102530008282704721B1828942F40042828103E0A5
:102540008289C2F30E028281704721B1828A42F4ED
:102550000062828204E0828A4FF2FF731A40828214
:102560007047828A4FF6FB731A408282828A0A433E
:102570008282704721B1828A42F00202828204E0A4
:10258000828A4FF6FD731A4082827047024600200D
:10259000B1F5007F00D100BF13880B400BB10120C3
:1025A00000E00020704701F40072B2F5007F00D116
:1025B00000BFCA430280704770B502460024002362
:1025C0000025002040F66A16B14200D100BFC1F3D9
:1025D000421501F01F03012606FA03F3012D02D173
:1025E0009689334006E0022D02D1168A334001E07D
:1025F000968A33400C12012606FA04F416883440F9
:1026000013B10CB1012000E0002070BD10B5002214
:10261000002340F66A14A14200D100BF0A1201242F
:102620009440A3B2DC43048010BD00000038014098
:102630000044004000480040004C00400050004072
:10264000002044490860091D0860091D0860091D33
:10265000086041483F4914310860704700213D49F6
:102660008279002A3AD00A46126803689A430B46D8
:102670001A600A1D126803689A430B1D1A600279DA
:1026800011440A6803681A430A60324A0832126821
:1026900003689A432F4B08331A601A1D12680368A7
:1026A0009A432C4B0C331A604279102A0ED11A1F10
:1026B000126803681A43274B08331A601A1D126800
:1026C00003681A43234B0C331A600DE02149427909
:1026D00011440A6803681A430A6005E0027911444C
:1026E0000A6803689A430A6070470021016001711B
:1026F0000C21417100218171704716491031096820
:102700000143144A10321160704701460020114AFB
:10271000143212680A400AB1012000E0002070471C
:102720000C49143108607047014600200022094B13
:102730001B6803EA0102074B14331B680B4013B1FB
:102740000AB1012000E000207047024914310860FE
:102750007047000000040140FFFF0F0010B5044661
:10276000FE48844208D10121C014FFF71BFD00215F
:10277000E014FFF717FDC4E0B4F1804F08D1012148
:102780000846FFF71CFD00210120FFF718FDB8E007
:10279000F348844208D101210220FFF710FD0021F7
:1027A0000220FFF70CFDACE0EE48844208D1012185
:1027B0000420FFF704FD00210420FFF700FDA0E046
:1027C000E948844208D101210820FFF7F8FC0021E4
:1027D0000820FFF7F4FC94E0E448844208D101218A
:1027E0001020FFF7ECFC00211020FFF7E8FC88E048
:1027F000DF48844208D101212020FFF7E0FC0021BE
:102800002020FFF7DCFC7CE0DA48844208D101217B
:102810004014FFF7C7FC00216014FFF7C3FC70E011
:10282000D548844209D10121C804FFF7BBFC00212F
:102830004FF40020FFF7B6FC63E0D048844209D192
:1028400001210805FFF7AEFC00214FF48010FFF7CF
:10285000A9FC56E0CA48844209D101214805FFF786
:10286000A1FC00214FF40010FFF79CFC49E0C54893
:10287000844208D101214020FFF7A1FC0021402023
:10288000FFF79DFC3DE0C048844208D10121802033
:10289000FFF795FC00218020FFF791FC31E0BB4859
:1028A000844208D101218015FFF789FC0021A01581
:1028B000FFF785FC25E0B648844209D101210804D0
:1028C000FFF770FC00214FF48030FFF76BFC18E03D
:1028D000B048844209D101214804FFF763FC00217C
:1028E0004FF40030FFF75EFC0BE0AB48844208D1A8
:1028F00001218804FFF756FC00214FF48020FFF7E8
:1029000051FC10BD00220288944B98420ED0994B86
:1029100098420BD0B0F1804F08D0914B984205D02F
:10292000904B984202D0904B984204D14FF68F734F
:102930001A404B881A438D4B984207D08C4B9842D3
:1029400004D04FF6FF431A40CB881A4302808B888D
:1029500083850B880385814B98420BD0854B984229
:1029600008D08B4B984205D08A4B984202D08A4BB4
:10297000984201D10B7A038601238382704770B598
:10298000002400220023058C4FF6FE763540058496
:10299000028C8388048B4FF68F752C40B51E2C401B
:1029A0000D882C43751E2A400D892A434D882A43E1
:1029B0006A4DA8420BD06F4DA84208D0744DA84272
:1029C00005D0744DA84202D0734DA84213D14FF6E2
:1029D000F7752A404D892A434FF6FB752A408D88AA
:1029E0002A434FF6FF652B404FF6FF552B408D894C
:1029F0002B43CD892B4383800483CD888586028435
:102A000070BD70B5002400220023058C4FF6EF76D0
:102A100035400584028C8388048B48F6FF752C4072
:102A20004FF6FF452C400D884FF6FF7606EA052548
:102A30002C434FF6DF752A400D8906EA05152A4317
:102A40004D8806EA05152A43444DA84202D0494D57
:102A5000A8421DD14FF67F752A404D894FF6FF766B
:102A600006EA05152A434FF6BF752A408D8806EA07
:102A700005152A434FF6FF352B404FF2FF752B40CB
:102A80008D8906EA85052B43CD8906EA85052B430A
:102A900083800483CD880587028470BD70B50024CF
:102AA00000220023058C4FF6FF6635400584028C1A
:102AB0008388848B4FF68F752C404FF6FC752C4025
:102AC0000D882C434FF6FF552A400D894FF6FF76AF
:102AD00006EA05252A434D8806EA05252A431F4DA7
:102AE000A84202D0234DA8421DD14FF2FF752A40C3
:102AF0004D894FF6FF7606EA05252A434FF6FF3546
:102B00002A408D8806EA05252A434EF6FF752B409C
:102B10004DF6FF752B408D8906EA05152B43CD89AF
:102B200006EA05152B4383808483CD88858702843C
:102B300070BD70B5002200230024058C4EF6FF7690
:102B400035400584038C8488828B48F6FF752A40C3
:102B50004FF6FF452A400D8820E00000002C014080
:102B60000004004000080040000C0040001000403D
:102B70000014004000340140004C0140005001406E
:102B80000054014000180040001C0040002000409C
:102B90000040014000440140004801404FF6FF76EC
:102BA00006EA05252A434DF6FF752B400D8906EAF6
:102BB00005352B434D8806EA05352B43FA4DA842CF
:102BC00002D0FA4DA84208D14BF6FF752C408D89F2
:102BD0004FF6FF7606EA85152C4384808283CD88E4
:102BE000A0F84050038470BD828B4FF2FF331A402F
:102BF0008283828B4FF6FF7303EA01231A43828399
:102C00007047F0B50C461546002200210026078CBF
:102C10004EF6FF7C07EA0C070784828B018C4FF687
:102C2000FF7707EA043640F6FF473A404FF6FF7752
:102C300007EA05273A434FF6FF7707EA03373A4397
:102C4000D94FB8420ED0D94FB8420BD0B0F1804F17
:102C500008D0D74FB84205D0D64FB84202D0D64F91
:102C6000B84206D14DF6FF77394046F480573943D4
:102C700005E047F6FF57394044F4805739438283D3
:102C80000184F0BD828B4FF6F3731A408283828BEE
:102C90000A4382837047F0B50C4615460022002196
:102CA0000026078C4FF6FF6C07EA0C070784828B1F
:102CB000018C4FF6FF7707EA04264FF60C773A406F
:102CC0004FF6FF7707EA03172F433A43B64FB84250
:102CD0000ED0B64FB8420BD0B0F1804F08D0B44FF1
:102CE000B84205D0B34FB84202D0B34FB84206D174
:102CF0004FF6FF57394046F48077394305E04FF2ED
:102D0000FF57394044F48077394382830184F0BD12
:102D1000028B4FF2FF331A400283028B4FF6FF7390
:102D200003EA01231A4302837047F0B50C461546A7
:102D3000002200210026078C4FF6EF7C07EA0C07E3
:102D40000784028B018C4FF6FF7707EA041640F6E2
:102D5000FF473A404FF6FF7707EA03373A434FF60B
:102D6000FF7707EA05273A438F4FB8420ED08F4FBF
:102D7000B8420BD0B0F1804F08D08D4FB84205D08B
:102D80008C4FB84202D08C4FB84206D14FF6DF7755
:102D9000394046F01007394305E04FF65F77394078
:102DA00044F01007394302830184F0BD028B4FF6D3
:102DB000F3731A400283028B0A4302837047F0B513
:102DC0000C46154600220021068C4FF6FE773E4049
:102DD0000684028B018C4FF60C7632407E1C06EA8C
:102DE00003162E433243704EB0420ED06F4EB042A7
:102DF0000BD0B0F1804F08D06D4EB04205D06D4E73
:102E0000B04202D06C4EB04206D14FF6FD76314052
:102E100044F00106314305E04FF6F576314044F0C9
:102E20000106314302830184F0BD70B505460C46AE
:102E30005D4885420ED05D4885420BD0B5F1804F8C
:102E400008D05B48854205D05A48854202D05A488E
:102E5000854200D100E000BF208850B92389A288B4
:102E600061882846FFF7ABFFE1882846FFF79EFF01
:102E700025E0208804280AD12389A2886188284671
:102E8000FFF753FFE1882846FFF742FF17E020884D
:102E900008280AD12389A28861882846FFF7FBFE0B
:102EA000E1882846FFF7EEFE09E02389A2886188C1
:102EB0002846FFF7A6FEE1882846FFF795FE70BD7D
:102EC0002DE9F04105460C4600260127608808B927
:102ED000022600E00026A088012801D1022700E098
:102EE00001272088A0B92389A28861882846FFF796
:102EF00066FFE1882846FFF759FF23893A463146A5
:102F00002846FFF712FFE1882846FFF701FF13E08C
:102F10002389A28861882846FFF707FFE1882846B1
:102F2000FFF7F6FE23893A4631462846FFF747FF6A
:102F3000E1882846FFF73AFFBDE8F0810A884B8810
:102F40001A438B881A43CB881A430B891A434B893F
:102F50001A438B891A43A0F8442070474FF6FF713B
:102F6000818000210180C180418001727047002171
:102F7000018041808180C180018141818181C18145
:102F80007047002101804180012181800021C180A2
:102F9000018170470021018041808180C1800181D1
:102FA0004181818170470000002C014000340140C4
:102FB0000004004000080040000C004021B10288DD
:102FC00042F00102028004E002884FF6FE731A40CC
:102FD0000280704731B1B0F8442042F40042A0F8BA
:102FE000442005E0B0F84420C2F30E02A0F84420CB
:102FF00070471AB183890B43838102E083898B4335
:10300000838170478182704741EA0203A0F848300B
:1030100070471AB183890B43838102E083898B4314
:103020008381704701894FF6F87211400181704722
:103030000A46002101894FF68F731940114301811F
:10304000704730B504460D4629462046FFF7F0FF8D
:10305000208940F00700208130BD2DE9F041044671
:103060000D4616461F46602D06D13B4601223146CD
:103070002046FFF75AFE05E03B4601223146204636
:10308000FFF79DFE29462046FFF7D2FF208940F03A
:1030900007002081BDE8F08130B50C460021018990
:1030A000C9B24FF6FF7505EA0325154325432943A9
:1030B000018130BD2DE9F04105460E461746984680
:1030C000002443463A4631462846FFF7E5FF2C895F
:1030D0004FF6F870044044F007044FF68F70044038
:1030E00044F070042C81BDE8F081F0B504460D4633
:1030F00016461F463B46324629462046FFF7CCFF80
:10310000208940F480402081F0BD01858282704793
:103110000A46002101884FF68F7319401143018040
:103120007047F0B50C4615461E46002100220023CC
:103130000189028B038C4FF6F877394021434FF613
:10314000FC473A4040F201173A434FF6DD773B40E7
:103150004FF6FF7707EA06172F433B4301810283AF
:103160000384F0BD0A460021018B4FF68F7319408E
:103170001143018370470A460021018B48F6FF7313
:1031800019404FF6FF7303EA022319430183704786
:103190000A460021818B4FF68F73194011438183BA
:1031A00070470A460021818B48F6FF7319404FF69D
:1031B000FF7303EA022319438183704721B1028818
:1031C00042F08002028004E002884FF67F731A40CA
:1031D0000280704721B1828842F00402828004E0BC
:1031E00082884FF6FB731A408280704721B1828833
:1031F00042F00802828004E082884FF6F7731A409A
:103200008280704721B1828842F00102828004E00E
:1032100082884FF6FE731A40828070470A4600216A
:10322000018B4FF6F77319401143018370470A462B
:103230000021018B4FF2FF7319404FF6FF7303EA31
:1032400002231943018370470A460021818B4FF600
:10325000F77319401143818370470A460021818B1F
:103260004FF2FF7319404FF6FF7303EA022319432D
:10327000818370470A460021018B4FF6FB7319408A
:103280001143018370470A460021018B4FF6FF333B
:1032900019404FF6FF7303EA022319430183704775
:1032A0000A460021818B4FF6FB731940114381833D
:1032B00070470A460021818B4FF6FF3319404FF6C5
:1032C000FF7303EA02231943818370470A460021F2
:1032D000018B4FF67F7319401143018370470A46F3
:1032E0000021018BC1F30E014FF6FF7303EA0223A5
:1032F0001943018370470A460021818B4FF67F7383
:1033000019401143818370470A460021818BC1F324
:103310000E014FF6FF7303EA0223194381837047BE
:103320000A460021018C4FF6FD73194011430184B8
:1033300070470A460021018C4FF6F773194011437C
:10334000018470470A460021018C4FF6DF73194053
:103350004FF6FF7303EA02131943018470470A46CC
:103360000021018C4FF67F7319404FF6FF7303EA7B
:1033700002131943018470470A460021018C4FF65D
:10338000FF5319404FF6FF7303EA022319430184E8
:1033900070470A460021018C4FF2FF7319404FF627
:1033A000FF7303EA02231943018470470A46002190
:1033B000018C4DF6FF7319404FF6FF7303EA023399
:1033C00019430184704730B5002301248C40A3B217
:1033D000048C9C430484048C02FA01F5ADB22C43A6
:1033E000048430BD30B5002304248C40A3B2048C87
:1033F0009C430484048C02FA01F5ADB22C4304848E
:1034000030BD70B503460020002418461830012551
:103410008D40ACB21D8CA5431D8409B1082909D18A
:1034200000EB6100056825F070050560056815432F
:1034300005600EE00D1FC5F34E052844056825F410
:10344000E045056005684FF6FF7606EA022635433B
:10345000056070BD21B1028842F00202028004E0E2
:1034600002884FF6FD731A400280704721B102882E
:1034700042F00402028004E002884FF6FB731A4017
:103480000280704721B1828842F08002828004E08D
:1034900082884FF67F731A408280704702884FF609
:1034A000F7731A40028002880A43028070478288BC
:1034B0004FF68F731A40828082880A438280704759
:1034C00002894FF6F8731A40028102890A43028189
:1034D000704702894FF67F731A40028102890A43BE
:1034E000028170478184704781857047818670476B
:1034F0000187704781877047A0F8401070470288A5
:103500004FF6FF431A40028002880A430280704748
:103510000146888E70470146088F70470146888FA4
:1035200070470146B1F8400070470146888C7047EB
:103530000146088D704702460020138A0B400BB1EC
:10354000012000E000207047CA430282704730B576
:103550000246002000230024158A05EA010395890C
:1035600005EA010413B10CB1012000E0002030BDD8
:10357000CA4302827047000001684FF6FE72114094
:1035800001600021016041608160C1608D49884215
:1035900008D18C490839496841F00F01894A083A35
:1035A00051608AE087491431884208D18549083939
:1035B000496841F0F001834A083A51607DE0814951
:1035C0002831884208D17F490839496841F470613F
:1035D0007C4A083A516070E07A493C31884208D10F
:1035E00078490839496841F47041764A083A51608F
:1035F00063E074495031884208D1724908394968FA
:1036000041F470216F4A083A516056E06D496431C7
:10361000884208D16B490839496841F47001694A08
:10362000083A516049E067497831884208D16549D4
:103630000839496841F07061624A083A51603CE0DB
:103640006149884206D1011F096841F00F01021F3C
:10365000116032E05C491431884208D15A49091F8F
:10366000096841F0F001584A121F116025E05649DF
:103670002831884208D15449091F096841F4706112
:10368000514A121F116018E04F493C31884208D15D
:103690004D49091F096841F470414B4A121F1160DE
:1036A0000BE049495031884207D14749091F096851
:1036B00041F47021444A121F1160704710B5002276
:1036C000026847F6F0739A430C6A8B6823430C69CF
:1036D00023434C6923438C692343CC6923434C6ABD
:1036E00023438C6A23431A430260CB6843600B6810
:1036F00083604B68C36010BD002101604160816040
:10370000C160016141618161C161016241628162A7
:10371000704721B1026842F00102026004E00268D1
:103720004FF6FE731A40026070471AB103680B43EC
:10373000036002E003688B43036070474160704799
:103740000146486880B2704701460020002201F01F
:1037500080531BB11C4B083B1A6802E0194B083B15
:103760001A6802EA01030BB1012000E00020704753
:1037700000F0805119B11449091F086002E0114995
:1037800008394860704701460020002201F080534C
:103790001BB10D4B083B1A6802E00A4B083B1A6844
:1037A00002EA01030BB1012000E00020704700F0A5
:1037B000805119B10449091F086002E00149083924
:1037C00048607047080002400804024010B50446F3
:1037D0002CB90120F64909680882002010BDF5497E
:1037E000096808688047F24800680A30F6E710B5B3
:1037F000EF480068C078F0494978884213DCEC480B
:103800000068807878B9EA480068808858B9E84844
:103810000068C078E64909688872E649096848681E
:103820008047002010BD0220FCE710B504462CB9EB
:103830000120DF4909680882002010BDDD490968C0
:1038400088688047DA4800680C30F6E710B5D84B36
:103850001B68D978D64B1B685879D84B1B689A6976
:1038600090470446D2480068807AE8B13CB9D04815
:103870000068007918B9CE480068807808B1022045
:1038800010BD8CB9CB490968C8688047C848006832
:103890004079C7490968C872C5480068C078C449FA
:1038A000096808730020EBE70220E9E710B5044639
:1038B0002CB90220BE4909680882002010BD0020F2
:1038C000BF490880BA480068007800F07F0018BB44
:1038D000B7490968487A00F0200131B1B849097840
:1038E00041F00201B64A117005E0B549097801F0CE
:1038F000FD01B34A117000F0400131B1B0490978BF
:1039000041F00101AE4A117005E0AD49097801F0BE
:10391000FE01AB4A11703AE0A5480068007800F05B
:103920007F00012801D1A648C8E7A14800680078B7
:1039300000F07F00022828D19D4A1268517901F0D9
:103940000F0001F080027AB19E4B03EB8002D2F8A7
:10395000002C02F03002102A16D1994A127842F057
:103960000102974B1A700FE0964B03EB8002D2F8DE
:10397000002C02F44052B2F5805F05D1904A1278D3
:1039800042F001028E4B1A7001E0002096E789494F
:103990000968086980478A4890E72DE9F04784481C
:1039A0000068007800F07F08B8F1000F0AD1804865
:1039B0000068407A00F0DF007D4909684872002005
:1039C000BDE8F087B8F1020F7ED1794800684088E1
:1039D00018B977480068007908B10220F0E7DFF8ED
:1039E000D89173480068477927F080052C467048C5
:1039F0000068407900F0800038B1724901EB840022
:103A0000D0F8000C00F0300606E06E4901EB8400AF
:103A1000D0F8000C00F4405699F80000A84204D9F0
:103A20001EB163480068807A08B90220C8E707F031
:103A3000800080B1634901EB8400D0F8000C00F0F5
:103A4000300010284BD1E0B201F01DF8E0B2302177
:103A500000F09FFE43E05B4901EB8400D0F8000CCE
:103A600000F44050B0F5805F39D1E4B9564A92F87D
:103A70002C10E0B201F091F8524A02EB8401D1F827
:103A8000001C4BF68F7201EA020080F4805080F433
:103A9000005040F4004141F080014A4B03EB8402A6
:103AA000C2F8001C1BE0E0B200F0D5FF454A02EB73
:103AB0008401D1F8001C4BF68F7201EA020080F4F9
:103AC000805080F4005000E00FE040F4004141F0ED
:103AD00080013C4B03EB8402C2F8001C00BF354957
:103AE00009684869804700206AE700BF022067E74D
:103AF0002DE9F0412E480068467926F080073C46C3
:103B00002B480068407900F0800038B12D4901EB66
:103B10008400D0F8000C00F0300506E0294901EBE4
:103B20008400D0F8000C00F4405523480078A042EF
:103B300008D91F480068408820B91DB11C4800689A
:103B4000807A10B90220BDE8F08106F08000A0B1B3
:103B50001C4A02EB8401D1F8001C48F6BF7201EA4E
:103B6000020080F0100040F4004141F08001154B4C
:103B700003EB8402C2F8001C14E0124A02EB840139
:103B8000D1F8001C4BF68F7201EA020080F48050DD
:103B900040F4004141F080010A4B03EB8402C2F87B
:103BA000001C00BF03490968886980470020CAE7F4
:103BB0007400002080000020F80000207800002021
:103BC0006A00002000500040FC00002010B5F748BB
:103BD0000068407A40F02000F44909684872F449CE
:103BE0000968C8698047002010BD10B50246EF483B
:103BF0000068438A32B98888C01AEC4C2468208255
:103C0000002010BD08681844FBE72DE9F041E748A3
:103C1000006800F110042688A068C0B1BEB1A58874
:103C2000B54200D93546A8B2A16888470746208822
:103C3000401B2080608828446080002000F07FFFC7
:103C40008046AAB24146384600F03EFD00BF2088BB
:103C500050B14FF44050D74908800021084600F089
:103C60007AFF3020D44908802088A188884204DB6C
:103C70000320CE490968087218E02088002804DD76
:103C80000520CA490968087210E0208870B906202A
:103C9000C649096808720021C848006880B2801CC3
:103CA000C74A42F810103020C3490880BDE8F081AF
:103CB0002DE9F047BD48006800F110052E88BB488B
:103CC0000068077AD6B9042F18D1BE4800780128B9
:103CD0000FD10021B948006880B2801CB84A42F870
:103CE00010103020B449088000BF0020B54908708A
:103CF00003E007271020B049088027E0AC88A642DF
:103D000001D8042000E002200746B44200D934461E
:103D1000A0B2A96888478046002000F005FF8146D0
:103D2000A2B24946404600F0B5FCA1B2002000F026
:103D300012FF2888001B2880688820446880302073
:103D40009D49088000029B49088000BF9749096887
:103D50000F72BDE8F08770B5022694480068447879
:103D600092480068007800F07F00002844D1092CB8
:103D700003D1FFF73CFD06465FE0052C14D18B48CC
:103D80000068C0787F280BDC88480068807838B9E4
:103D900086480068808818B984480068807A08B12D
:103DA000082565E0002648E0032C0ED17F48006816
:103DB000C078012807D17D480068808818B9FFF7CE
:103DC00005FF064639E0022637E0012C35D1774859
:103DD0000068C07801280DD174480068808848B90F
:103DE00072480068407A00F0200018B1FFF7D5FD56
:103DF000064622E0022620E06C480068007800F0C9
:103E00007F00012805D10B2C17D1FFF71FFD0646B7
:103E100013E066480068007800F07F0002280BD1AC
:103E2000012C03D1FFF7B9FD064606E0032C04D1AF
:103E3000FFF75EFE064600E002264EB1E0B2624A9F
:103E40001268516988470646032E01D109250FE003
:103E50000EB108250CE0062500215848006880B204
:103E6000801C574A42F8101030205349088000BF88
:103E70004E4909680D7270BD2DE9F84F4B48006836
:103E800045780027BA46062D1BD1484800680078BF
:103E900000F07F00002813D1444909688878012880
:103EA00003D149490968CF690AE0022803D146498C
:103EB00009680F6A04E0032802D1434909684F6A80
:103EC000ADE0002D67D1394800684088002862D1F4
:103ED00036480068C08802285DD1344800680079FF
:103EE000002858D131480068007800F07F0030B9D0
:103EF0002E480068808810B9AFF24F678FE02B48DA
:103F00000068007800F07F00012811D12749096876
:103F100048792D4909688A690021904700287ED197
:103F200022480068807A002879D0AFF27F6776E077
:103F30001E480068007800F07F0002286FD11B48FF
:103F40000068407900F00F0618480068407900F0DA
:103F5000700916480068407900F0800038B11B49AC
:103F600001EB8600D0F8000C00F0300806E017499D
:103F700001EB8600D0F8000C00F44058144800789B
:103F8000B0424CD9B9F1000F49D1B8F1000F46D079
:103F9000AFF2E76743E0082D1CD1044800680078C1
:103FA00000F07F00D8BBAFF2DB7738E07400002070
:103FB000800000208400002086000020505C00402B
:103FC000006000406C00002078000020005000409D
:103FD000F80000200A2D22D1C5480068007800F0C2
:103FE0007F0001281BD1C2480068807AB8B1C04860
:103FF0000068408898B9BE480068007978B9BC4824
:104000000068C08801280AD1B94909684879B949C6
:1040100009688A690021904708B9AFF2F17757B172
:10402000B3480068A0F812A0B1480068876100207A
:10403000B84700240FE0AE4A12685078AD4A1268C3
:10404000116988470446032C05D10920A84909684D
:104050000872BDE8F88FA6480068008A4FF6FF7125
:10406000884204D10920A24909680872F1E7022CAC
:1040700003D09F480068008A20B908209C4909683D
:104080000872E6E79A480068007800F08000E0B324
:1040900097480068C088009095480068008A009999
:1040A000884204D9924900980968088223E0904820
:1040B0000068008A8E490968C98888421BDA8C48E2
:1040C0000068008A8B49096891F82C10884203DA4D
:1040D0000020894908700EE085480068008A8549FB
:1040E000096891F82C1090FBF1F201FB120010B955
:1040F0000120814908707F48006890F82C107C48A6
:1041000000688182FFF7D4FD07E0FFE703207849CC
:104110000968087200037949088000BF99E710B563
:10412000774890F82C10002000F037FD70480068A8
:10413000007A082805D14002704908801020714992
:1041400008806B480068007A092801D1012010BD61
:104150000020FCE738B501246B48006880B2001DE0
:104160006A4931F8100080B201EB400000906048CD
:104170000068007A092832D0009800785C49096804
:1041800008700098401C0090009800785849096811
:1041900048700098401C0090009800EB440000908C
:1041A000009931F8020B009100F0A0FE5049096817
:1041B0004880009800EB44000090009931F8020B11
:1041C000009100F093FE4A4909688880009800EB4E
:1041D000440000900098008845490968C880012083
:1041E00043490968087242480068C08810B9FFF75F
:1041F000B2FD01E0FFF740FEFFF791FF38BD30B59B
:104200000146434B1A78002014E00306414C04EBAE
:104210009353D3F8003C48F68F74234048F280044F
:104220002343C4B2234304063A4D05EB9454C4F827
:10423000003C401C9042E8D341F08003324C241FE4
:10424000236030BD10B52A480068047A022C01D0E2
:10425000042C05D1FFF72CFD25480068047A1CE0EA
:10426000062C19D122480068407805280ED1204834
:104270000068007800F07F0040B91D490968C878DF
:10428000FFF7BDFF24490968086A80471949096892
:1042900088688047082400E00824154909680C72E2
:1042A000FFF73DFF10BD10B511480068047A022CDD
:1042B00001D0042C01D1082412E0032C01D0052CDC
:1042C00005D1FFF7A2FC0A480068047A08E0072C31
:1042D00005D108490968C8688047082400E0082417
:1042E000034909680C72FFF71AFF10BD7047000000
:1042F00074000020780000206C0000208400002062
:10430000FC00002086000020505C0040006000405F
:10431000F8000020005000408000002010B5084840
:1043200008490860022009680872074807490860C0
:10433000074808490860054909680868804710BDB2
:104340001C2A002074000020FC00002078000020BF
:104350002C0100208000002008B50020009022E100
:10436000C448008800F00F00C34908700846007870
:1043700000287CD1C1480068C149088008460088EF
:1043800000F03000BF490880BD48008800F440506C
:10439000BB490880B94909684BF6BF7201EA0200BF
:1043A00080F4005080F0200040F4004141F0800192
:1043B000B24A1160AF48008800F0100090BB104670
:1043C000006848F60F71084011460860FFF73AFF91
:1043D000AA4909684BF6BF7201EA0200A849098898
:1043E00001F4805109B180F48050A549098801F495
:1043F000005109B180F40050A249098801F0100170
:1044000009B180F010009F49098801F0200109B12D
:1044100080F0200081B241F4004141F08001974AD0
:10442000116008BDFFE79548006880B20090BDF8B4
:10443000000000F40060B0B390480068C0F30E00C4
:1044400048F68F7108408D490860FFF783FE8B495D
:1044500009684BF6BF7201EA02008949098801F434
:10446000805109B180F480508549098800E056E008
:1044700001F4005109B180F400508249098801F02B
:10448000100109B180F010007E49098801F0200177
:1044900009B180F0200081B241F4004141F0800177
:1044A000764A1160BDE7FFE7BDF8000000F4004068
:1044B000002878D071480068C0F30E0048F68F716C
:1044C00008406E490860FFF7EEFE6C4909684BF63C
:1044D000BF7201EA02006A49098801F4805109B1FA
:1044E00080F480506649098801F4005109B180F4D4
:1044F00000506449098801F0100109B180F01000F2
:104500006049098801F0200109B180F0200081B2E2
:1045100041F4004141F08001584A116081E756485A
:104520000078594901EB8000D0F8000C80B200906F
:10453000BDF8000000F40040C0B14F48007801EB26
:104540008000D0F8000CC0F30E0048F68F710840D0
:10455000494909784C4A02EB8101C1F8000C4649EF
:104560000978491E494A52F821008047BDF80000E9
:1045700000F08000B8B140480078434901EB80006A
:10458000D0F8000C48F60F7108403B4909783E4AC4
:1045900002EB8101C1F8000C37490978491E3C4AF9
:1045A00052F82100804735484430006880B23149D4
:1045B000088000F4004000287FF4D2AE00BF30E74E
:1045C00010B500244AE047F6FF702C4944310860DA
:1045D0002848008800F00F00274908700846007836
:1045E000294901EB8000D0F8000C84B204F40040AB
:1045F000C8B12148007801EB8000D0F8000CC0F36E
:104600000E0048F68F7108401B4909781E4A02EBDC
:104610008101C1F8000C18490978491E1B4A52F85B
:10462000210080471AE004F08000B8B112480078F9
:10463000154901EB8000D0F8000C48F60F710840D6
:104640000D490978104A02EB8101C1F8000C0A49B2
:104650000978491E0E4A52F8210080470748443025
:10466000006880B20349088000F400400028AAD105
:1046700010BD0000A800002070000020005C004079
:10468000840000208600002000500040D000002060
:10469000B4000020F0B5144604F1010C4FEA6C0799
:1046A000DFF848C00CEB41033D460AE00678401CA9
:1046B00090F800C046EA0C2223F8022B9B1C401CF9
:1046C0006D1E002DF2D1F0BDF0B5561C7510074ED1
:1046D00006EB41042B4605E034F8047B20F8017B0F
:1046E000401C5B1E002BF7D1F0BD000000600040B5
:1046F000FA4908607047F948006880B27047F74986
:10470000091D08607047F548001D006880B27047B9
:10471000F2480830006880B27047F0490C310860F8
:104720007047EE480C30006880B270474FF6F87161
:104730000140EA4A103211607047E84810300068C2
:1047400080B27047E64B03EB8002C2F8001C704752
:104750000146E34A02EB8100D0F8000C80B27047BA
:1047600010B5DF4B03EB8002D2F8002C48F68F1314
:104770001A400A43DA4C04EB8003C3F8002C10BD46
:104780000146D74A02EB8100D0F8000C00F4C0606B
:10479000704730B5D24C04EB8003D3F8003C48F6A8
:1047A000BF7403EA040201F010030BB182F010029F
:1047B00001F020030BB182F0200242F4004343F0E9
:1047C0008003C74D05EB8004C4F8003C30BD30B514
:1047D000C34C04EB8003D3F8003C4BF68F7403EA20
:1047E000040201F480530BB182F4805201F40053AF
:1047F0000BB182F4005242F4004343F08003B84D01
:1048000005EB8004C4F8003C30BD30B503460C46CF
:104810001846FFF79DFF0546012C07D125F480506F
:10482000AF4A02EB8301C1F8000C08E0022C06D16C
:1048300025F01000AA4A02EB8301C1F8000C30BD3C
:104840000146A74A02EB8100D0F8000C00F03000CE
:1048500070470146A24A02EB8100D0F8000C00F438
:104860004050704710B59E4B03EB8002D2F8002CED
:1048700048F6BF7302EA030181F0100181F02001C4
:1048800041F4004242F08002954C04EB8003C3F8EF
:10489000002C10BD10B5924B03EB8002D2F8002C17
:1048A0004BF68F7302EA030181F4805181F40051C9
:1048B00041F4004242F08002894C04EB8003C3F8CB
:1048C000002C10BD864A02EB8001D1F8001C41F497
:1048D000807148F68F72114048F280021143804B7C
:1048E00003EB8002C2F8001C70477D4A02EB800196
:1048F000D1F8001C48F68F62114048F28002114343
:10490000774B03EB8002C2F8001C7047744A02EB3D
:104910008001D1F8001C48F68F62114048F28002F5
:1049200011436F4B03EB8002C2F8001C70476C4AC6
:1049300002EB8001D1F8001C41F4807148F68F72BF
:10494000114048F280021143654B03EB8002C2F82C
:10495000001C7047624A02EB8001D1F8001C41F450
:10496000807148F68F72114048F2800211435C4B0F
:1049700003EB8002C2F8001C7047594A02EB800129
:10498000D1F8001C48F68F62114048F280021143B2
:10499000534B03EB8002C2F8001C70470146504A9B
:1049A00002EB8100D0F8000C00F03000102801D19B
:1049B000012070470020FCE70146494A02EB8100D4
:1049C000D0F8000C00F44050B0F5805F01D1012018
:1049D00070470020FCE7424A02EB8001D1F8001C3E
:1049E000C1F30E0148F68F7211403D4B03EB80027C
:1049F000C2F8001C70473A4A02EB8001D1F8001C53
:104A000048F60F721140364B03EB8002C2F8001CCF
:104A10007047334A02EB8001D1F8001C48F68F72D0
:104A200011404CF2800211432D4B03EB8002C2F87F
:104A3000001C70472A4A02EB8001D1F8001C48F69E
:104A40008F72114048F2C0021143254B03EB8002E4
:104A5000C2F8001C7047224A02EB8001D1F8001C0A
:104A600001F4804171B102EB8001D1F8001C48F6DD
:104A70008F7211404CF280021143194B03EB8002FC
:104A8000C2F8001C7047164A02EB8001D1F8001CE6
:104A900001F0400171B102EB8001D1F8001C48F631
:104AA0008F72114048F2C00211430D4B03EB80029C
:104AB000C2F8001C704710B5094B03EB8002D2F816
:104AC000002C48F68F731A4048F280031A430A43B9
:104AD000034C04EB8003C3F8002C10BD405C004085
:104AE000005000400146FC4A02EB8100D0F8000C67
:104AF00000F00F00704710B54A105200F74B1B68CA
:104B00009BB203EBC003F64C44F8132010BD10B564
:104B10004A105300F14A126892B202EBC002121D11
:104B2000EF4C44F8123010BD0146EC48006880B2EA
:104B300000EBC100EA4A32F8100080B2704701462B
:104B4000E648006880B200EBC100001DE44A32F87C
:104B5000100080B27047E14A126892B202EBC002C4
:104B6000921CDF4B43F81210704702463E290BDDC2
:104B7000481101F01F030BB9431E98B24FF40043D4
:104B800043EA8023136007E0481001F001030BB1F2
:104B9000431C98B283021360704710B50246CF4899
:104BA000006880B200EBC200801DCD4C04EB4003D6
:104BB0003E290BDD481101F01F040CB9441EA0B2C0
:104BC0004FF4004444EA80241C6007E0481001F0E0
:104BD00001040CB1441CA0B284021C6010BD01464B
:104BE000BE48006880B200EBC100801CBC4A32F8AD
:104BF0001000C0F3090070470146B848006880B251
:104C000000EBC100801DB64A32F81000C0F3090065
:104C1000704730B54B105B00B04C2468A4B204EB75
:104C2000C004AF4D45F8143053105C00AB4B1B680B
:104C30009BB203EBC0031B1D45F8134030BD10B5FC
:104C40004A105200A54B1B689BB203EBC003A44C57
:104C500044F8132010BD10B54A1053009F4A126843
:104C600092B202EBC002121D9D4C44F8123010BDEE
:104C700001469A48006880B200EBC100984A32F8B9
:104C8000100080B2704701469448006880B200EB83
:104C9000C100001D924A32F8100080B2704730B552
:104CA0000B46012B1FD18D49096889B201EBC00168
:104CB000891C8B4D05EB41043E2A0BDD511102F09E
:104CC0001F050DB94D1EA9B24FF4004545EA8125D7
:104CD000256007E0511002F001050DB14D1CA9B28D
:104CE0008D0225600AE0022B08D17C49096889B24F
:104CF00001EBC001891C7A4C44F81120012B1FD113
:104D00007649096889B201EBC001891D744D05EB34
:104D100041043E2A0BDD511102F01F050DB94D1E55
:104D2000A9B24FF4004545EA8125256007E05110FE
:104D300002F001050DB14D1CA9B28D0225600AE0FB
:104D4000022B08D16549096889B201EBC001891DB0
:104D5000634C44F8112030BD30B5034601291FD102
:104D60005E48006880B200EBC300801C5C4D05EB20
:104D700040043E2A0BDD501102F01F050DB9451EFF
:104D8000A8B24FF4004545EA8025256007E05010A1
:104D900002F001050DB1451CA8B2850225600AE0AC
:104DA000022908D14D48006880B200EBC300801C86
:104DB0004B4C44F8102030BD30B5034601291FD1BB
:104DC0004648006880B200EBC300801D444D05EBEF
:104DD00040043E2A0BDD501102F01F050DB9451E9F
:104DE000A8B24FF4004545EA8025256007E0501041
:104DF00002F001050DB1451CA8B2850225600AE04C
:104E0000022908D13548006880B200EBC300801D3C
:104E1000334C44F8102030BD01463048006880B261
:104E200000EBC100801C2E4A32F81000C0F30900CC
:104E3000704701462948006880B200EBC100801D20
:104E4000274A32F81000C0F3090070470146234892
:104E5000006880B200EBC100801D214A32F81000CA
:104E600000F47C4008B1012070471C48006880B203
:104E700000EBC100801C1A4A32F81000C0F3090090
:104E800008B10220F0E70020EEE710B5012910D1AB
:104E9000114B03EB8002D2F8002C48F68F731A40B6
:104EA00048F2C0031A430C4C04EB8003C3F8002CF7
:104EB00011E002290FD1084B03EB8002D2F8002C3D
:104EC00048F68F731A404CF280031A43024C04EBED
:104ED0008003C3F8002C10BD00500040505C00401F
:104EE00000600040024641EA022070470146CAB213
:104EF0000B1243EA0220704700201D4908604FF45E
:104F00003F401C490880084600881949091F08606D
:104F1000002070472DE9F04104460E46154604F086
:104F20007F00FFF701FE0746AAB239463046FFF779
:104F3000B1FBA9B204F07F00FFF70DFE0020BDE831
:104F4000F0812DE9F04104460E46002504F07F0073
:104F5000FFF752FE054604F07F00FFF7F0FD07461D
:104F60002A4639463046FFF7AFFB2846BDE8F081B8
:104F7000445C00407E00002010B54FF48020FDF717
:104F8000E4FB10BD10B500F027FA10BD10B50020ED
:104F9000FDF74EF80121C805FDF7F7F810BD10B573
:104FA00097A000F021FD03209A49086010BD10B5BC
:104FB000994C9AA000F018FDA07A18B105209549E7
:104FC000086002E001209349086010BD0EB54FF45F
:104FD0008020FDF7BAFB4FF48020009008208DF868
:104FE000050001208DF806006846FDF737FB142008
:104FF0008DF8080001208DF8090000208DF80A00C6
:1050000001208DF80B0002A8FCF72DFD2A208DF859
:10501000080000208DF8090002A8FCF724FD0EBD51
:1050200010B504461CB182A000F0DEFC02E084A0B2
:1050300000F0DAFC10BD10B5044601210420FDF794
:1050400097F83CB18248006880B220F002008049A5
:10505000086014E07E48006880B240F002007C499D
:1050600008607C48006820F47F207A490860084680
:10507000006840F44C30086000207749086010BD9B
:1050800030B50B46002100BF16E00A24B4EB107FB8
:1050900005D9302404EB107403F8114005E04124D5
:1050A00004EB10740A3C03F81140000100254C0089
:1050B000641C1D554C1CE1B29142E6DB30BD70B55D
:1050C00066480468001D0568001D0668344454B134
:1050D000082263492046FFF7D3FF042260491031BC
:1050E0002846FFF7CDFF70BD10B500205D49A1F83F
:1050F0006600A1F864005C4908805C4801795CA006
:1051000000F072FC5948417961A000F06DFC5748ED
:10511000817968A000F068FC544801686DA000F037
:1051200063FC012010BD30B503460A46002133E080
:10513000585C4D4C248804F400445CBB4A4C2488E1
:1051400004F4804464B10A2803D00024464D2C8026
:1051500020E0454C248844F40044434D2C8019E061
:105160000D2806D1404C248844F480443E4D2C80C8
:1051700010E03D4C2488C4F30D045E4D28553A4C94
:105180002488641C384D2C802C462488C72C01DDD3
:1051900000242C804C1CE1B29142C9DB30BD314966
:1051A000B1F864102F4A50541146B1F86410491CEC
:1051B000A2F864101146B1F86410642902D10021EC
:1051C000A2F8641070470FB438B505A800904A489B
:1051D000009A049900F0F6FB00200090464800F089
:1051E0000FFD85B2002405E04349085DFFF7D7FFB6
:1051F000601C84B2AC42F7DB38BC5DF814FB0000E5
:10520000757362BDF8C8EBB5CDB9A6BAC4C4A3CA5C
:10521000BD0D0A00800100201C2A0020757362CD9C
:10522000CBB3F6B5CDB9A6BAC4C4A3CABD0D0A00A6
:10523000757362CAB9C4DCC9CFC0AD0D0A000000E5
:10524000757362CAA7C4DCC9CFC0AD0D0A000000E7
:10525000405C004004080140B0012142E8F7FF1F14
:105260008C000020382A002088000020F000002058
:105270006C696E65636F64696E672E666F726D61CF
:1052800074D0A3D1E9CEBB3A25640D0A000000001A
:105290006C696E65636F64696E672E7061726974A4
:1052A0007974797065CDA3D6B9CEBB3A25640D0A61
:1052B000000000006C696E65636F64696E672E6440
:1052C00061746174797065CAFDBEDDCEBB3A256438
:1052D0000D0A00006C696E65636F64696E672E620B
:1052E000697472617465B2A8CCD8C2CA3A25640DDB
:1052F0000A000000682B0020A02A002070B5324868
:10530000B0F866003049B1F86410884200D170BD31
:105310002D48B0F866002C49B1F86410884208DACC
:105320002948B0F864002849B1F86610401A84B2E0
:1053300005E02548B0F86600C0F1640084B2402C56
:1053400000DD40242048B0F86650B0F866002044E4
:105350001D49A1F866000846B0F86600642802DB23
:105360000020A1F86600184948192246C021FFF71D
:1053700091F921460120FFF7EEFB0120FFF772FAB9
:1053800000BFC4E710B511490320FFF7DAFD84B26E
:10539000E1B20E48FFF7C7FE0320FFF77BFA10BD0E
:1053A00010B50B48006805280CD10A480168006850
:1053B000401C084A1060052904D1002011460860ED
:1053C000FFF79CFF10BD0000382A0020302C002081
:1053D00080010020A400002010B588B00024694896
:1053E0000068694908800846008800F40070674931
:1053F0000988084050B14FF6FF5062490860644880
:105400000078401C62490870FFF7CAFF5E480088B8
:1054100000F400405D490988084008B1FEF79CFF90
:105420005948008800F4806058490988084030B124
:105430004FF6FF3053490860564948688047524844
:10544000008800F4005051490988084018B14DF611
:10545000FF704C4908604C48008800F480504B496C
:105460000988084030B14EF6FF70464908600020B8
:1054700000F039FA4448008800F400604349098884
:10548000084060B14448007810B100F0D6F902E05D
:10549000022000F028FA4FF2FF703A4908603A48BB
:1054A000008800F48070394909880840002866D0D7
:1054B0004FF6FF6033490860081D006800F40040A3
:1054C000002856D035480068401C3449086008461A
:1054D0000068032850D92B48001F006800F008001E
:1054E000002849D12748001F006880B22C49086075
:1054F000002408E02B4901EB8400D0F8000C80B2B6
:105500004DF82400641C082CF4D32548006840F0B2
:105510000100234908600846006880B21949091F44
:1055200008601F48006820F001001D490860084617
:10553000006880B21349091F086000BF1148006865
:1055400000F480600028F9D04FF6FF300D49086064
:10555000002408E05DF8240080B2124A02EB8401C6
:10556000C1F8000C641C082CF4D300200B4908601F
:1055700002E0002009490860072000F0B4F908B0F3
:1055800010BD0000445C0040A80000207E00002008
:10559000AA000020FC00002084010020AC000020B4
:1055A000B00000200050004010B5FFF788FD00203B
:1055B00083490968887200F017F9FFF79DFC002005
:1055C0008049086010BD10B500207D4909688872C7
:1055D0007D48C0797A49096848720020784909688D
:1055E000C872FFF7A3F84FF400710020FFF7B8F876
:1055F00010210020FFF7CDF840210020FFF787FAA7
:1056000080210020FFF777FA0020FFF77FF96F482D
:1056100090F82C100020FFF7C0FA0020FFF73AF9AD
:1056200000210120FFF79CF8C0210120FFF763FA59
:1056300020210120FFF7ADF800210120FFF7C7F876
:105640004FF4C0610220FFF78BF84FF48071022005
:10565000FFF751FA00210220FFF7B9F820210220BC
:10566000FFF797F800210320FFF77AF84FF48871CD
:105670000320FFF74CFA40210320FFF78EFA4FF486
:1056800040510320FFF7A3F800210320FFF781F822
:105690000020FEF7B4FD01204A49086010BD4C48C7
:1056A000817A11B10521474A1160704704204549AC
:1056B0000860704710B547480078202804D1FFF7EC
:1056C00013FD00204349087010BD7047014629B9F9
:1056D00008203B4A12681082002070473E48FCE7D1
:1056E000014629B90820364A126810820020704706
:1056F0003948FCE770B504460025212C09D1304813
:105700000068007800F07F00212810D1AFF22F054B
:105710000DE0202C0BD12A480068007800F07F00B3
:10572000212801D1AFF25B0520202A4908700DB96C
:10573000022070BD22480068856100212048006871
:1057400041820020A8470020F3E701461C4800687A
:10575000007800F07F00212807D1022901D1002024
:105760007047222901D10020FAE70220F8E710B59E
:1057700004461A492046FEF738FA10BD10B5044613
:1057800017492046FEF731FA10BD70B505460C48A2
:105790000068C478042C01DD002070BD114800EBC6
:1057A000C4012846FEF721FAF7E70246002901DD89
:1057B00002207047012A01DD0220FAE70020F8E705
:1057C0007400002080010020707E0008FC00002092
:1057D0001C2A0020EC000020F000002050010020D6
:1057E000580100206001002010B50120FFF718FCCF
:1057F00001246D48046000206C4908800846008838
:10580000694908600020091D08604FF4E0506749AD
:1058100008800846008864490860002010BD10B563
:105820000120614908600020091D0860FFF7F8FBAE
:1058300003205D490860002010BD38B50025002018
:1058400000905948006884B200BF09E0584901EB54
:105850008500D0F8000C80B2564941F825006D1C37
:10586000082DF3D344F480644F48046044F00104ED
:10587000046024F00104046000BF4B48001D006870
:1058800000F480600028F8D04FF6FF304649091D2B
:105890000860002509E0474850F8250080B2444AD6
:1058A00002EB8501C1F8000C6D1C082DF3D344F008
:1058B00008043D480460006884B244F004043A4897
:1058C0000460FFF76CFB38BD10B53748006884B240
:1058D00024F0040434480460FFF769FB4FF43F40B0
:1058E0003149086010BD70B50546072D01D032481A
:1058F00005703148007808284ED2DFE800F0041126
:105900001A202B384E4F2D48006828B9FFF7DCFFCE
:1059100006202949087002E005202749087041E067
:10592000FFF7D2FF042024490870012023490860B2
:1059300038E00220204948700320087032E01E48F9
:105940004078401E1C4948700846407808B9042039
:10595000087027E01448006884B244F0100412482C
:1059600004600520144908700A2048701AE01248A3
:105970004078401E104948700846407858B90A4897
:10598000006884B224F01004074804600620087000
:1059900000200A49086005E000BF00BF0620064954
:1059A000087000BF00BF70BD405C00407E0000205A
:1059B00000500040702C002085010020880100204C
:1059C000704700001CB50C46064B7B4469460090AE
:1059D000204600F02EFA04460020694600F03CFA0A
:1059E00020461CBD8B0400000FB4044910B503AA67
:1059F000029800F037FA10BC5DF814FB4C00002050
:105A00002DE9F0410646002410687529314616A597
:105A100010D000F061F9002802DA404213A507E037
:105A200031688A0701D512A502E0490704D511A5FE
:105A3000012401E000F059F900210A2206F12407AF
:105A400009E0B0FBF2FCB0FBF2F302FB1C003030CB
:105A500078541846491C0028F3D123462A4630467C
:105A6000BDE8F04100F073B9000000002D00000017
:105A70002B000000200000002DE9F05F894604465D
:105A80004FF0000ADFF874B1FB44C0F820A02046B4
:105A9000E1688847002874D0252806D0D4E9012180
:105AA0009047206A401C2062F1E700265F462046AE
:105AB000E16888472028054607DB312D05D2781993
:105AC00010F8200C08B10643F1E7B00701D526F025
:105AD0000406C4F81CA00027C4F818A02A2D09D079
